:1000000000000420750300005D0300005F03000092
:1000100061030000630300006503000000000000AE
:100020000000000000000000000000006703000066
:1000300069030000000000006B0300006D03000076
:100040006F0300006F0300007D1600006F030000C7
:100050006F0300006F0300006F030000F116000043
:10006000751B00006F0300006F0300006F030000AA
:100070006F0300006F0300006F0300006F030000B8
:100080006F0300006F0300006F0300006F030000A8
:100090006F0300006F0300006F0300006F03000098
:1000A0006F0300006F0300006F0300006F03000088
:1000B0006F0300006F03000000000000000000005C
:1000C0006F0300006F0300006F0300006F03000068
:1000D0006F0300006F0300006F0300006F03000058
:1000E0006F0300006F0300006F03000000000000BA
:1000F000000000006F030000000000006F0300001C
:1001000000000000000000000000000000000000EF
:1001100000000000000000000000000000000000DF
:1001200000000000000000000000000000000000CF
:1001300000000000000000000000000000000000BF
:1001400000000000000000000000000000000000AF
:10015000000000000000000000000000000000009F
:10016000000000000000000000000000000000008F
:10017000000000000000000000000000000000007F
:10018000000000000000000000000000000000006F
:10019000000000000000000000000000000000005F
:1001A000000000000000000000000000000000004F
:1001B000000000000000000000000000000000003F
:1001C000000000000000000000000000000000002F
:1001D000000000000000000000000000000000001F
:1001E000000000000000000000000000000000000F
:1001F00000000000000000000000000000000000FF
:10020000354936480A1A02D0072291438D463449AF
:1002100034480A1A06D00722914381F30988022242
:1002200082F3148830483149314A00F044F83148AB
:100230003149324A00F03FF831483249324A00F041
:100240003AF832483249334A00F035F832483349F7
:10025000334A00F030F833483349344A00F02BF881
:1002600033483449344A00F026F8344834490022EF
:1002700000F02CF833483449002200F027F83348C6
:100280003349091A082902DB002202604160314A21
:1002900090471F481F49884205D00268043003B4C4
:1002A000904703BCF7E700208646EC46002000217B
:1002B000294A9047FEE7884207D0521A05D00378B2
:1002C00001300B700131013AF9D17047884202D0F8
:1002D00002700130FAE770470000042000E00320BC
:1002E0000000042000000420184A00000000002044
:1002F00034000020D4030000D40300003044000088
:10030000184A000000000020000000209444000073
:10031000944400009444000094440000944400007D
:10032000944400009444000094440000184A0000E3
:100330004C4A00003400002034000020340000202B
:100340006009002060090020640900206409002081
:10035000642900209D03000009270000FEE7FEE756
:10036000FEE7FEE7FEE7FEE7FEE7FEE7FEE7FEE765
:10037000704700BF1048804710484FF0070188437E
:1003800085460F4880470F48016841F470010160BD
:10039000BFF34F8FBFF36F8FFFF732BF0A480B4990
:1003A0000B4A884207D0521A05D0037801300B70EF
:1003B0000131013AF9D170477103000000000420B7
:1003C0006D29000088ED00E094440000000000204A
:0403D0000000002009
:1003D4000048704758090020F0B595B01D461646F0
:1003E40008460C4600F0FCFF1A9B0D93CDE9086506
:1003F40000252B46082205A920460A958DF82C5085
:100404000C9501F00AF8079B0293069B03939DF851
:1004140014308DF8115003F00302012A1DD1BDF8E8
:100424001420059DC3F3C203C2F383168DF8103064
:10043400B20008230EA9204600F0EFFFC5F395256E
:1004440008AB0093324602AB0EA9284600F0BCFB71
:10045400204600F0C9FF15B0F0BD022AF8D1BDF85E
:100464001650C3F3C203C5F389158DF8103008275D
:10047400082D2E4628BF08263B4632460EA92046A4
:1004840000F0CBFFAD1B08AB02AA31460EA83744DF
:1004940000F0FEFB002DEBD1DAE70000014B012256
:1004A4001A707047750000207047000070B5124D37
:1004B40006460FCD88B06C460FC495E80F00002E99
:1004C40084E80F004FF0FF334FF00602CDE900231C
:1004D400CDE90233094A0A484FF0EB7308BF002202
:1004E4006946069301F026F808B100F02DFC054B8F
:1004F4001E7008B070BD00BF94440000A104000049
:10050400000000203400002007B5044B0093044A87
:100514004023FFF761FF03B05DF804FB29050000E9
:100524003500002038B50D4B0D4D002018700D48D6
:1005340004782D5DD2B21C4665B1043001F068FF29
:1005440008B100F001FC084B1A7812B12378002B93
:10055400FBD038BD0C3001F049FDF1E775000020F7
:100564002C060020000000203400002008B50848B4
:10057400084A0378D35C3BB1043001F0F5FEBDE8D2
:1005840008400020FFF792BF0C3001F0DBFCF6E7D7
:10059400000000202C0600200120FFF787BF000088
:1005A40008B5FFF7F9FF0448042100F075FA034B7E
:1005B40001225A7108BD00BF7044000014000020DD
:1005C400037813F0040216D003F00303012B03D0C5
:1005D400022B09D0012070470A6800880232C0F358
:1005E400831002440A60F5E70B684288023303EB88
:1005F40092130B60EEE71046704700002DE9F04FB0
:10060400044685B0861C00200F46154600F0F4FB16
:10061400454801683960D0E90132134401335B1A5B
:10062400824600F21C4700F5836900F21448B34285
:100634001BD30020002D72D004F00F039B0143F064
:10064400050363F30F00DAF80020DAF808301340EA
:10065400033316444AF823000020CAF8006000F06F
:10066400CDFB012005B0BDE8F08F0121384600F034
:10067400EAFB484600F0FFFB404600F0FCFBDAF8DA
:100684000400DAF808B0009000EA0B0003300AEB2B
:1006940080006946FFF794FF009B50BB0BEA0302FE
:1006A4000AEB820203F1020CD2680192013303EADD
:1006B4000B0B0AEB8B0B02F00302012ADBF80C1084
:1006C400CDF800C023D0022A16D08346404600F05D
:1006D400D5FB10B1009BCAF804305946384600F0E7
:1006E400B2FBDAE901231344DAF8002001339B1A40
:1006F4009DE70BEA0300C9E7BDF80630C3F389138D
:1007040003334FEA114B0CEB93030093DEE7BDF880
:100714000430C3F383134FEA114B6344F5E7A40594
:1007240044F006008FE700BF480100200B4B0C4843
:10073400FF2210B59A600022C3F81824C3E90022EE
:10074400C3F8142483F8202400F003FE044610B9EF
:10075400044800F09DFE204610BD00BF4801002063
:1007640080440000E844000030B50A4C71B10A4AE4
:100774000A49121BD20800239A4201D1002030BD3D
:1007840031F82350854202D00133F5E7034654F88B
:100794003300F4E7304400007044000000000020FF
:1007A400094B013903EBC000032909D8DFE801F044
:1007B4000A020406042070470079704740797047A4
:1007C400002070470220704730440000034BD3E9F7
:1007D4000030C31A58425841704700BF48010020F6
:1007E4002DE9F04385B0FFF7F1FF0646002840F0FD
:1007F400F5807B4DC5F81804BFF34F8F6B68AC6868
:1008040000932340033305EB83006946FFF7D8FECA
:10081400009B18B1D5F81824002A5FD004EA03021B
:10082400991C013305EB8202234005EB8303D26854
:10083400DB68029302F00303022B0192009160D162
:10084400BDF806306748C3F38917502FB84628BF50
:100854004FF0500868F38F1308F10801ADF8063023
:1008640000F08FFD0646002800F0A38000F0B8FDDC
:100874000023082201A9304600F0C5FD009924EAAE
:1008840001020132B8EB820F4FEA820332D95FFAD8
:1008940088F85BB32140DCB2A8EB040803315FFAAB
:1008A40088F9A046504C05EB8101082342463046A6
:1008B40000F0A9FD34B108F108034A462146304648
:1008C40000F0A1FD009B033703EB97070097D5F8D1
:1008D4001834002B49D1D5F8104459E02A689A42BB
:1008E4008FD86A60304605B0BDE8F0833E491C46A7
:1008F4009946DAE70C40E11C0823424605EB8101E6
:10090400DDE7012B55D1BDF804303648C3F383111C
:10091400062928BF062161F3891302318900ADF845
:10092400043000F02EFD0646002842D000F058FDA9
:100934000023082201A9304600F065FD0027BDF818
:100944000420C2F38312BB00974203F10803BED212
:1009540000994A1C21400331009205EB81010422D5
:10096400304600F050FD0137E9E7304600F03CFD29
:10097400FFF72CFF80F00100C6B2B3E7E3685B79B0
:1009840023B1236831461B6820469847E3681C68F6
:10099400002CF3D1304600F027FD204600F02CFA5D
:1009A400D5F818340BB9009B6B60002000F026FAD0
:1009B400DEE7D5F8104454B90C4B0D480D49C01A64
:1009C400C008000440F0020000F062F8D0E7236899
:1009D40020469B689847E3681C68ECE7002681E79B
:1009E40048010020804400005401002030440000ED
:1009F40060440000D14400002DE9F74F224D044625
:100A04000F46924601A901221846D5F808909B4644
:100A1400FFF7F4FD20B3019E4FF00008B21CD84547
:100A240008EB020126D11948002100F0E9F980F30E
:100A34001000000440EA1440E400731C04F038047D
:100A440003EA090306EA090644F0010405EB8303FB
:100A5400033644EA881444EA8724D86045F82640DB
:100A640095F820341BB1FFF7BBFE0028FBD103B07F
:100A7400BDE8F08F09EA010105EB81015AF828303D
:100A8400CB6008F10108CAE7480100206405002092
:100A940000231A46FFF7B0BF30B50F49D1F8102430
:100AA40003460020144634B9DC6820714AB9C1F801
:100AB4001034226030BDE4682579854206D024686C
:100AC400F1E7D268116821601360F3E701300A2866
:100AD400E8D14FF0FF30EDE748010020094A38B56E
:100AE4000123D2F8104482F820341D4604B938BDDD
:100AF400E3685D71236820465B689847E3681C6877
:100B0400F4E700BF4801002007B503460846197AF8
:100B1400052911D05B7A2BB1094A0A49019000F0EA
:100B240007FA01980849019000F002FA019803B00D
:100B34005DF804EB00F0F1B9002AF8D0F2E700BF49
:100B4400F4440000F94400001945000030B5C3889E
:100B540085B004460D4633B1144A00921449154A2F
:100B6400284600F0E5F9217A05291DD0637A4BB1B6
:100B7400A088FFF715FE104B104953F82020284693
:100B840000F0D6F9227A0E4BA08853F82220039263
:100B94000021FFF7E9FD039A0A490346284605B0F8
:100BA400BDE8304000F0C4B905B030BDF4440000E5
:100BB40004450000FC44000080450000F9440000A6
:100BC400A44500001C4500002DE9F04385B01F46F4
:100BD4000C9D002395F80C902B7306460C4690460A
:100BE40029463846FFF7B2FFB8F1060F09D8DFE807
:100BF40008F00412181F283340003146284600F03C
:100C040097F9002229463846FFF77EFF85F80C90B5
:100C140005B0BDE8F08322683146284600F088F923
:100C2400EFE7D4E900233146284600F081F9E8E7EC
:100C3400A36800933146D4E90023284600F078F9EC
:100C4400DFE7E3680193A36800933146D4E9002306
:100C5400284600F06DF9D4E723690293E368019311
:100C6400A36800933146D4E90023284600F060F9D4
:100C7400C7E76369039323690293E3680193A36855
:100C840000933146D4E90023284600F051F9B8E72F
:100C940008292DE9F74F80460E4617461C463CD8D6
:100CA400002593F80C901D7319461046FFF74EFF6C
:100CB400DFF888A0DFF888B0AE4231D918F80520F3
:100CC4005946204600F034F90135082DF4D119496C
:100CD400194DDFF870A0204600F02AF94FF0000B00
:100CE4005E4522D918F80B207E2A05D810460192B9
:100CF40002F062FB019A00B92E225146204600F010
:100D040017F90BF1010BBBF1080FE9D101222146C0
:100D14003846FFF7F9FE84F80C9003B0BDE8F08F75
:100D24005146204600F004F9CEE72946204600F05B
:100D3400FFF8E6E7304500002E4500002C45000092
:100D440026450000324500001FB50021039001AA8A
:100D540044F20100CDE9011100F004F805B05DF89A
:100D640004FB000010B572B6FFF7B8FEFFF738FDBC
:100D74000028FBD1104B114C1149E41AE408240457
:100D840044F00100FFF784FE0E4B1B68DB0700D51F
:100D940000BE0D4944F00200FFF77AFEBFF34F8F07
:100DA4000A490B4BCA6802F4E0621343CB60BFF3F9
:100DB4004F8F00BFFDE700BF3044000060440000D7
:100DC400B8450000F0ED00E0C445000000ED00E08F
:100DD4000400FA0572B6024A1368013313607047BF
:100DE40004060020034A1368013B136003B962B68A
:100DF400704700BF04060020FFF7ECBFFFF7F2BF07
:100E040010B5034653E8000F0A4643E8002494F063
:100E1400000FF7D110BD10B5034653E8002F42EA86
:100E2400010043E8000494F0000FF6D110BD10B5A2
:100E3400034653E8000F00EA010243E8002494F05B
:100E4400000FF6D110BD10B5034653E8002F02EB96
:100E5400010043E8000494F0000FF6D110BD10B572
:100E6400034653E8002FA2EB010043E8000494F08A
:100E7400000FF6D110BD0121FFF7CDBF0021FFF710
:100E8400D6BF10B590B1D0E9012301689B1ADBB23B
:100E94000A60013BDBB2FF2B026802D10020107113
:100EA40010BD11684C1C14600B70F2E70E20F7E7BC
:100EB40038B504460020FFF79FFF22686368116875
:100EC400994213D9481E106011F8015CE368218A25
:100ED40001FB0535A36811791B1ADBB2994200D2D4
:100EE40013710020FFF78AFF284638BD0025F8E774
:100EF40038B5054600200C46FFF77EFF2A681368C4
:100F0400591C1160E968641A298AB4FBF1F41C7055
:100F1400BDE838400020FFF771BF826810B5044671
:100F24002AB143690168006998470023A36010BD92
:100F34000EB403B5039921B104AB01AA019300F0E7
:100F440077F802B05DF804EB03B070470A2938B5AE
:100F540004460D4602D10D21FFF7F8FFA36822686D
:100F6400591CA160D554D4E901329A4204D32046D5
:100F7400BDE83840FFF7D1BF38BD00002DE9F84F78
:100F84009846DDE90A43154682460F460A464FF065
:100F94000109AA420FD2C14538BFC14613F0010B63
:100FA40001D16CB900240126B8F1010F1BD908F155
:100FB400FF386E43F8E709F10109B2FBF5F2E8E7FF
:100FC4009B070ED5B8F1000F0CBF30262026A14593
:100FD400E9D2013C31465046FFF7B8FF002CF6D168
:100FE400E0E72026F3E7B7FBF6F39D42E1D9DFF80B
:100FF4003C80B7FBF6F3504618F8031006FB137752
:10100400FFF7A4FF3346AB42B6FBF5F6F1D2BBF1D2
:10101400000F02D00CB1A14501D3BDE8F88F202107
:101024005046013CFFF792FFF4E700BFD1450000B2
:101034002DE9F74F054617468846002900F04281FE
:1010440018F8011B49B92B7B002B00F03B81284683
:1010540003B0BDE8F04FFFF760BF252940F0B7802B
:10106400002698F800302D2B424608F1010823D0C1
:10107400302B24D02B2B25D000242A2B02F1010164
:1010840023D13B681A1D1B683A601C440A46137836
:101094002E2B26D101324FF0000A104610F8011B06
:1010A400A1F1300CBCF1090F1DD80A2303FB0A136C
:1010B400A3F1300A0246F0E746F00106D1E746F014
:1010C4000206CEE746F00406CBE711F8013CA3F193
:1010D40030000928DBD80A2202FB0434303C0A46DB
:1010E400CBE74FF0000A12F8011B01F0FB0068285F
:1010F4009046F8D0782909D86F290CD8632962D092
:1011040022D8252963D0582900F0888098F8003027
:10111400002B95D197E770390829F7D801A353F824
:1011240021F000BFA31200001111000011110000F2
:1011340031120000111100000F1200001111000003
:101144001111000021120000642901D06929DDD1A8
:101154003A68D2F80090111D89EAE9723960A2EB6D
:10116400E9724FF0010B092A35DCD34538BFD34669
:101174002CB1B9F1000F01DB720700D5013CB307B4
:1011840002D5BAF1000F03D0F00701D44CBB002400
:10119400B9F1000F2DDAC9F100092D212846FFF716
:1011A400D5FE06F00302022A04D1BAF1000F01D1E0
:1011B4001CBB0024CDE9004653460A224946284672
:1011C400FFF7DCFEA2E73B681A1D19783A6028464F
:1011D400FFF7BCFE9AE70A230BF1010BB2FBF3F213
:1011E400C1E7A345D4D220212846013CFFF7AEFE37
:1011F400CCE77107D5D52B21D0E7A345DAD230212E
:101204002846013CFFF7A2FED2E73968CDE9004643
:101214000A1D3A6053460A220968D0E739680A1D54
:101224003A60CDE9004653461022F5E73B681A1DA3
:101234003A6016F00106D3F8009028D1B9F1000FF6
:1012440003D0484602F032F90646B44200D904BB42
:1012540009F1FF3919F8011F00293FF457AF284657
:10126400FFF774FEF6E728460136FFF76FFE19F81C
:1012740006100029F7D1A642BFF448AF002C3FF472
:1012840045AF20212846013CFFF760FEF3E7002626
:10129400EDE720212846013CFFF758FED5E73B68DF
:1012A4001A1D3A60302128461C68FFF74FFE78214A
:1012B4002846FFF74BFE00220823CDE900322146E1
:1012C40010227CE703B0BDE8F08F00BF2DE9F84F92
:1012D400B0F806A04579D2F800B09DF828900AFB32
:1012E40005F5043D88460BEB0301A94203F1040410
:1012F40088BFA5EB030BB4FBFAF607460AFB1644BA
:10130400C2F800B04EB9AAEB04055D4528BF5D469E
:10131400BBF1000F04D1BDE8F88F3F68013EF1E74F
:10132400043408EB06003C442A46B9F1000F0DD002
:101334002146ABEB050B02F06EF8DA452E443F680C
:1013440055464FF0000428BF5D46E1E701462046BC
:10135400EFE7FFF796BDF8B546790146721E0546DC
:10136400002393422D6803D30024A64202D8F8BD7B
:101374000133F6E70F682846FFF7BAFD0134394612
:10138400F3E72DE9F843068ACD1C0746FFF790FDE5
:10139400043E35440446B5FBF6F5F0B14FF48073D2
:1013A400EDB28380C680013D076081464FF000089E
:1013B400A84512D23846FFF77BFD064648B163794B
:1013C4000133637108F10108C9F800000760814620
:1013D400EEE72046FFF7BFFF34462046BDE8F8831A
:1013E40001210430FFF72FBD10B50121044604305C
:1013F400FFF735FD10F0FF0F04D12046BDE8104083
:10140400FFF7A9BF10BD1FB503920022009203AAE3
:10141400FFF75CFF05B05DF804FB1FB503920122E2
:10142400009203AAFFF752FF05B05DF804FB000029
:10143400064B10B500241C70054B1C60BFF35F8F76
:101444000449054800F02DF8204610BD1006002080
:1014540014060020EC4500000806002008B5002012
:10146400FFF7CAFCF1EE103A23F09F03E1EE103AC5
:10147400BFF35F8F054B4022C3F884210020FFF7A0
:10148400BDFC20BF40BF20BF08BD00BF00E100E09D
:10149400836800225A60C3E904229A60DA601A6001
:1014A40070470B684A684360934208BF0023016099
:1014B40008BF436070470000034B187810B901223D
:1014C4001A70704785207047180600201FB50378EE
:1014D4008DF800304368019383688DF80830C36841
:1014E400054A0393054B684653F8213052F82110FE
:1014F400984705B05DF804FB1C0600202406002074
:101504001FB503788DF800304368019383688DF824
:101514000830C368054A0393054B684653F82130E5
:1015240052F82110984705B05DF804FB1C06002012
:1015340024060020F0B5194B90F800C0DFF86CE0E9
:1015440043F82C20164B16460A6943F82C204B7F8F
:101554000EF80C300C4607460FCC89B06D460FC50B
:1015640094E80F0085E80F001EF80C30CDF810C089
:101574004BB1002E0B4A694608BF3246381D00F0B5
:1015840015FE09B0F0BD002E074A694608BF324671
:1015940007F10C0000F000FCF3E700BF2406002074
:1015A4001C060020D1140000051500002C060020A4
:1015B4002DE9F84F134DDFF8508007464FF0000A2D
:1015C40004264FF001095FFA8AFB002009FA0BF4A4
:1015D400FFF712FC2C420AD0D8F8003014EA0302B8
:1015E40001BF2343C8F8003087F800B01646002036
:1015F400FFF704FC1EB1A5430AF1010AE3D130460A
:10160400BDE8F88FFFFF0F003006002010B5A1B130
:101614009AB101238340C3F3130484B10A4C2468B0
:1016240023420ED0C00000F1804000F5F830C0F82D
:101634001015C0F81425002010BD0E20FCE707206B
:10164400FAE70820F8E700BF30060020012303FA78
:1016540000F0C0F313031BB1054B1B68184204D000
:10166400044BC3F80405002070470820704700BFEE
:101674003006002000F00140014B1B68184700BFF2
:101684003406002038B50B4B98420C4601D000209C
:1016940038BD0020FFF7B0FB074B1D7915B90122B7
:1016A4001C601A710020FFF7A9FB002DEFD0112058
:1016B400EEE700BF0020004034060020034B9842B0
:1016C40001BF034B00221A601A71704700200040CA
:1016D4003406002000F1804000F5E040002382B091
:1016E400036003680193019B02B07047F0B5504B4F
:1016F400504C1B6885B0002B3DD04FF4827094F899
:101704002E20FFF7E7FF2AB394F82F3013BB4A4B80
:101714001B68002B33D04FF48070FFF7DBFF638B23
:1017240094F82D108B424FD922895B1A9BB292B246
:101734006383D31A626802EB4303404AC2F82C362F
:10174400C2F830164FF48270FFF7C4FF3C4B0122FD
:101754001A6014E0636802932389ADF80C30E368DF
:1017640000218DF8041023BB2374236801A8984733
:10177400002384F82F3094F82E30002BC7D1314B3E
:101784001B685BB14FF48870FFF7A4FF0023237438
:1017940002238DF8043001A8236898472A4B1B685C
:1017A400EBB14FF48A70FFF795FF0023237405B063
:1017B400F0BD208B608363602081E160002AD4D176
:1017C4001E4B01221A60D0E7BCD1E368012284F8E1
:1017D4002F2013B100226283AFE76383B2E7666907
:1017E4004FF000470125002EE1D0B6FA86F227FA21
:1017F40002F34632920026EA030602F1804303F51F
:10180400E0431B68002BEED01046FFF763FFA2F500
:101814008C72D30882F00402C2F380028DF808307F
:101824008DF8045023688DF8092001A89847DAE759
:10183400047100403C06002000710040007000402C
:1018440004700040107100401471004038B51E4B04
:10185400044693F82C00A8BB1C4A19602178C2F8EE
:10186400F0156178C2F8F415E5781874012183F84D
:101874002C1083F82D00586183F82F0083F82E5024
:101884006FF00043C2F808334FF48270FFF722FF71
:101894004FF48070FFF71EFF4FF48A70FFF71AFFB2
:1018A400A3780B485B01DBB280F807338023036025
:1018B4000223C2F804330DB1C2F80413C2F80015B0
:1018C400002038BD0820FCE73C06002000700040E2
:1018D40000E100E030B5224B1A7C002A3ED100F131
:1018E4000C0403EB4402127922B993F82D2001323F
:1018F40083F82D2003EB4403CA790C7A8D781A718E
:101904005C714B782D021B0105F4E06503F0300394
:101914002B430D7805F003052B43CD782D0305F4F7
:1019240080552B430D792D0405F4E0252B434D7987
:1019340089792D0505F48015090601F080712B4382
:101944000B43010101F1804101F5E0410020C1F8A0
:101954001835C1F81445C1F8102530BD1120FCE735
:101964003C060020054B93F82E30002B14BF0020BA
:10197400042000F1804000F5E04070473C06002060
:1019840070B5264A264B05461220C2F808031C7C73
:10199400022C03D1C2F80403112070BD187C012865
:1019A4001DD1D86818B10223C2F80433F4E7DD600E
:1019B400198393F82E3063B91A4A1368002BFCD0AC
:1019C4004FF48070FFF786FE144BC3F82C56C3F80F
:1019D4003016124B0222C3F804230020DDE7022054
:1019E40093F82E40C2F80403012600201E745D60A3
:1019F4001981D8603CB1598393F82D30C2F82C5624
:101A0400C2F83036C9E7C2F82C564FF48070C2F8D9
:101A14003016FFF75FFE20461660BEE700700040F8
:101A24003C06002000710040F7B506792F4D0C23C9
:101A34007343EF183C7A002C56D1EA504B687B6014
:101A4400477903682246D0B2874244D843F3073427
:101A5400C878002CA8BF04F16047C3F30732BABFAB
:101A6400234F02F00F0C07F561474FEA4010C0B254
:101A7400B4BF07F80C0087F80003640901201D4F68
:101A840002F01F0200FA02F247F82420D3F80445BA
:101A94004A7824F0030402F003022243C3F8042525
:101AA400D3F808458A7824F0030402F003022243A1
:101AB400C3F808250A78D3F8104502F00F0224F081
:101AC4000F010A43C3F810250C2303FB06552872A3
:101AD400002003B0F0BD900000F5A07001321C504E
:101AE400185801900198AEE70820F2E76C06002030
:101AF40014ED00E000E100E0036801221A600379BC
:101B0400034A0C2101FB032302221A72704700BF0F
:101B14006C06002037B54FF4803400688C407BB1EC
:101B240001F150039B000025C550C3580193019B4C
:101B3400C0F8044301F5A87140F8212003B030BD7A
:101B4400C0F80843F6E770B4046840F20116D4F80C
:101B540000528E4025EA0605C4F80052D4F800521B
:101B64002B43C4F800329DF80C3070BCFFF7D2BF91
:101B74002DE9F341104C114F114E00254FF48038DC
:101B84002368A4F5004080B26BB1D7F8043308FA97
:101B940005F21A4207D00023236023680193019BB6
:101BA400D6E9003198470135042D04F10404E7D146
:101BB40002B0BDE8F08100BF4081004000800040D9
:101BC4006C0600200023435082B043580193019BCC
:101BD40002B070470A4610B54FF48E71FFF7F2FF5A
:101BE400136A9168C95C136A01331362C0F81C1547
:101BF40010BD8B690A4610B54FF4847123B9FFF701
:101C0400E1FFD0F8183510BDFFF7DCFF536AD16847
:101C1400D0F81805C854536A01335362F3E700003F
:101C24001FB501238DF80030044BCDE90110D3E931
:101C340000126846904705B05DF804FB7806002062
:101C440030B54B48D0F8043313F4007F85B0054613
:101C54004DD0D0F82431002B49D04FF49271FFF7C6
:101C6400B1FF4FF40173C0F80833424B93F82920B5
:101C74000AB9012242603E4902228DF80020D1F8BF
:101C84008024C1F8802403929A690292DA6801924E
:101C94000022C3E906226846D3E90012904734487B
:101CA400D0F81C315BB133490A6A4B699A420A463F
:101CB4004AD291F82830002B46D1FFF78BFF2C48ED
:101CC400D0F844318BB14FF4A271FFF77BFF294B5D
:101CD40093F829200AB1012202609A692AB10022EC
:101CE400586AD9689A61FFF79BFF05B030BDD5F8F3
:101CF40004335B07D3D5D5F80831002BCFD01D4C66
:101D04001B482146FFF775FF636AA2699A4223467E
:101D1400C5D1E269E1684AB12369E3600023606ADE
:101D2400A261E3616362FFF77BFFB8E794F82920BF
:101D34000AB901226A600E4A4FF40170C2F808031E
:101D44000022586A9A61EEE74FF48E710848FFF753
:101D540039FF51690029B2D00023029191688DF8AE
:101D64000030019153616846D2E900139847A6E711
:101D740000200040780600201F2886BF00F01F00C6
:101D8400044B4FF0A04300F5E070022243F82020FA
:101D9400704700BF000300502DE9F843634B0579F9
:101DA40091462C2202FB0532064692F82A200C4664
:101DB4009846002A40F0B6805D490068FFF762FC4F
:101DC4000746002840F0B08021684A1C10D01F2923
:101DD40087BF584A01F01F030B464FF0A042012071
:101DE400984003F5E073C2F80805032042F8230085
:101DF4006068431C0DD01F288BBF00F01F030346EF
:101E04004C4A4FF0A04203F5E0734FF0000C42F847
:101E140023C03368A269C3F8242594F814C0627DF2
:101E2400BCF1010F4CEA0202C3F86C25C3F8140597
:101E3400C3F80C152BD1A168481C0DD01F298BBFEA
:101E440001F01F020A463B484FF0A04002F5E07241
:101E54004FF0000C40F822C0E068421C13D01F2849
:101E640087BF344A00F01F0C84464FF0A0424FF065
:101E7400010E0EFA0CFE0CF5E07CC2F808E54FF0FA
:101E8400030E42F82CE0C3F80805C3F810152C2300
:101E94006B4308EB0302C2F80490226948F803205C
:101EA400B9F1000F2BD03068247F4FF48E71FFF707
:101EB40089FE30684FF4A271FFF784FE32681E4B2E
:101EC400C2F80433110B42F30732002AA8BF02F10F
:101ED40060404FEA4413BABF184801F00F0400F5FC
:101EE4006140DBB2B4BF035580F8003301F01F0139
:101EF400012303FA01F15209114B43F8221033680C
:101F04000422C3F800252C2303FB05830022C3E924
:101F1400062283F829205A61012283F82A203846B0
:101F2400BDE8F8830827FAE71127F8E778060020C8
:101F3400451C0000000300508000020014ED00E086
:101F440000E100E02DE9F04103680479244D00220A
:101F5400C3F800252C2202FB0452014652686AB1E0
:101F6400204AC3F8082343F30732C3F30436520963
:101F74000120B04020321C4E46F82200D3F80C0554
:101F8400D3F81485D3F80865D3F810754FF0FF32F1
:101F94009042C3F81425C3F80C25C3F80825C3F8E8
:101FA400102501D0FFF7E8FEB8F1FF3F02D040460C
:101FB400FFF7E2FE7A1C02D03846FFF7DDFE731C01
:101FC40002D03046FFF7D8FE0868FFF777FB2C23D2
:101FD40003FB0454002384F82A306360BDE8F081D5
:101FE400780600208402020000E100E02DE9F843B5
:101FF400204B07794FF02C0909FB07340546666925
:102004009846002E33D100686261A16026624FF4C5
:102014008E7184F82860FFF7D5FD2868012383605A
:102024002146FFF7D7FD6368A14683B92868226A71
:1020340063699A4211D32B68D3F81C21002AFBD080
:102044000122DA602C2303FB078300225A61304605
:10205400BDE8F88394F828303BB9D0F81C31002B44
:10206400F8D04946FFF7B6FDE1E70F26EAE7112667
:10207400EDE700BF780600200023435082B04358A8
:102084000193019B02B070471FB501238DF8003006
:10209400044BCDE90110D3E900126846904705B01E
:1020A4005DF804FBA40600207FB5364AD2F824610B
:1020B400002E46D010464FF49271FFF7DDFF022345
:1020C4008DF80030D2F88034C2F880340393D2F80B
:1020D4003C3502932C4BDA6801920022C3E90622B4
:1020E4006846D3E9001290472648D0F8443173B1CA
:1020F4004FF4A271FFF7C0FF234B9A693AB1002253
:10210400C3E90622D968D0F83C05FFF7BDFF1D4896
:10211400D0F820319BB14FF49071FFF7ADFF1A4B0B
:102124005A6962B1D0F84C150291002299688DF871
:10213400002001915A616846D3E90012904704B027
:1021440070BDD2F81031002BCED04FF488711046F8
:10215400FFF792FF0C4BD2F83C0599698842C3D132
:10216400DC69D96864B1D2F8005225F02005C2F8C0
:1021740000521A699C61DA60DE61FFF785FFB3E7FC
:102184009C61FAE700200040A40600201F2886BFB7
:1021940000F01F00044B4FF0A04300F5E070022252
:1021A40043F82020704700BF000300502DE9F84396
:1021B400674B06799146242202FB0632044692F8C4
:1021C40020200D469846002A40F0BE8061490068F0
:1021D400FFF758FA0746002840F0B8802868421CE8
:1021E40010D01F2887BF5C4A00F01F0303464FF03E
:1021F400A0420121994003F5E073C2F808150321B8
:1022040042F8231069684B1C0DD01F298BBF01F0C5
:102214001F030B46504A4FF0A04203F5E0734FF002
:10222400000C42F823C02368AA69C3F8242595F852
:1022340014C06A7DBCF1010F4CEA0202C3F86C259C
:10224400C3F80C05C3F814152BD1A968481C0DD08C
:102254001F298BBF01F01F020A463F484FF0A040E0
:1022640002F5E0724FF0000C40F822C0E868421C0E
:1022740013D01F2887BF384A00F01F0C84464FF044
:10228400A0424FF0010E0EFA0CFE0CF5E07CC2F8F1
:1022940008E54FF0030E42F82CE0C3F80805C3F834
:1022A40010152423734308EB0302C2F804902A692F
:1022B40048F80320B9F1000F35D020682A7F4FF485
:1022C4008871FFF7D9FE20684FF49071FFF7D4FEB0
:1022D40020684FF49271FFF7CFFE20684FF4A2718B
:1022E400FFF7CAFE23681D49C3F80413190B43F30F
:1022F4000733002BAEBF03F1604001F00F0518480F
:102304004FEA4212A8BF00F56140D2B2B4BF4255B1
:1023140080F8002301F01F01012202FA01F15B0998
:10232400104A42F8231023680822C3F80025242306
:1023340003FB06830022C3E906225A61012283F8C3
:1023440020203846BDE8F8830827FAE71127F8E784
:10235400A4060020AD20000000030050100302007A
:1023640014ED00E000E100E02DE9F0410368047998
:10237400244D0022C3F80025242202FB0452014606
:1023840052686AB1204AC3F8082343F30732C3F3FF
:10239400043652090120B04020321C4E46F8220077
:1023A400D3F80C05D3F81485D3F80865D3F8107561
:1023B4004FF0FF329042C3F80C25C3F81425C3F83C
:1023C4000825C3F8102501D0FFF7E0FEB8F1FF3F60
:1023D40002D04046FFF7DAFE7A1C02D03846FFF7F7
:1023E400D5FE731C02D03046FFF7D0FE0868FFF715
:1023F40065F9242303FB0454002384F8203063602C
:10240400BDE8F081A40600201003020000E100E012
:1024140001F06043B3F1005F2DE9F041064632D18B
:102424001B4B0779242505FB073598466C6964BB6B
:102434006A610068A9604FF49071FFF71DFE4FF4C4
:10244400AC713068FFF718FE33686A69A968C3F88D
:102454004415C3F8482501229A606A6862B9D3F822
:102464002021D3F8584152B9002CF8D00F2424234A
:1024740003FB078700237B612046BDE8F081002C25
:1024840018BF0F24F3E71024F6E71124F4E700BF84
:10249400A4060020704700000000000038B52DEDB0
:1024A400028B03780446002B73D140680221FFF7A6
:1024B40067FA08B1FEF748FC6368B3F90200B3F9A0
:1024C4000050C0EB401300EB830040F2FF3390FB5D
:1024D400F3F000F0CDFD35A3D3E9002300F046FC72
:1024E400364B002200F0DEFC0022354B00F03AFCB3
:1024F40000F0ECFD143D08EE100A2946314800F0C6
:1025040005FA63683048B3F9021000F0FFF9284671
:1025140000F0AEFD21A3D3E9002300F027FC21A3A2
:10252400D3E9002300F0BEFC20A3D3E9002300F08C
:102534001DFC224B002200F0B5FC1EA3D3E90023AE
:1025440000F010FC00F0C2FD00F0A6FD02460B46B0
:102554001E4800F0DBF918EE100A00F09DFD02465B
:102564000B461B4800F0D2F9DFED1A7A1A4BB4EE91
:10257400E78AF1EE10FA4FF0020208DBBDEC028BA1
:10258400C3F808251548BDE8384000F0BFB9C3F8C2
:102594000C25BDEC028B38BDAFF3008000000000B9
:1025A40000586B400000000000F88F40CDCCCCCC2C
:1025B400CCCC0C400000000000B850400000144097
:1025C40000002940174600002B4600003F4600004B
:1025D4004B460000000048420003005057460000EC
:1025E4001FB5FEF769FF08B1FEF7AEFB174A18489E
:1025F4000023CDE9022302A9164AFFF715FA08B110
:10260400FEF7A2FB144B1548D3F810250021D2B2D3
:1026140020FA02F2009101230D48FFF794FA0C48C6
:10262400FFF76AFAFFF79EF904460D48FEF7C0FF6C
:1026340008B1FEF789FB0A4B0A4918782246FEF7CF
:10264400E5FF08B1FEF780FB04B010BD00000306EF
:10265400B0460000992400000080004000A86100FA
:10266400D00600204081004008B5054B1878FEF7DD
:10267400EDFF18B1BDE80840FEF766BB08BD00BF1A
:10268400D00600207FB51A4B596818686A4603C201
:10269400197A53F8090F117059681B7A03AA03C2F7
:1026A400144915481370FFF7D1F808B1FEF74CFB35
:1026B40069460120FFF70EF908B1FEF745FB03A9AF
:1026C4000220FFF707F908B1FEF73EFB0B48022191
:1026D400FFF756F908B1FEF737FB09480221FFF767
:1026E4004FF908B1FEF730FB07B05DF804FB00BFFB
:1026F40099460000A1240000AB460000C806002053
:10270400CC060020002108B50846FEF70FF808B1F2
:10271400FEF71AFBFDF744FFFEF78AFE08B1FEF749
:1027240013FB0D4B0322C3F80427FFF7ABFFFFF79E
:1027340057FFFFF799FF0948094B0A49C01AC00817
:10274400000440F00300FEF7A3F9FEF787FEFEF74E
:1027540047F80028FBD1F8E700030050604400006C
:1027640030440000774600000369C1688B429DBF76
:102774008268D21802F1FF3203F1FF3394BF501A7A
:10278400581A70472DE9F843D0E902940546A9EB9D
:1027940004084068904520440F46144404D900F0CE
:1027A4003AFEEC60BDE8F8834246A4EB090400F06D
:1027B40032FE6868224607EB0801F0E72DE9F8438A
:1027C400C5680646894617464FF000083469B36861
:1027D4007068A54228BFE418013C621B5C1BBC4224
:1027E40028BF3C46944228BF144649462844224602
:1027F40000F011FEB3682544AB4208BF00253F1B1F
:10280400A044A144F560E1D14046BDE8F88300004E
:1028140010B5114C114AA2610223C4E90433104BD0
:10282400E361A2644FF400730E4A0F492362E26429
:1028340000231022E01DA3626362E362A365636563
:10284400E365226500F010FE0849204600F00CFE06
:102854002023A37110BD00BFD4060020B846000099
:102864005C0700204C070020C1460000C54600005C
:10287400F8B5184C182300FB033503FB004025442E
:10288400C46A012C0F4616460FD0022C1AD0F4B994
:102894002846FFF769FF864205D83246394628465E
:1028A400FFF770FF34462046F8BD2846FFF75CFF6B
:1028B4008642344628BF0446224639462846FFF756
:1028C40061FFF0E72846BDE8F840FFF777BF002432
:1028D400E9E700BFD406002070B50B4B1B78044613
:1028E4000D4616460BB9FFF793FF0020FEF784FA56
:1028F400324629462046FFF7BBFF04460020FEF778
:102904007DFA204670BD00BFD40600200FB410B578
:10291400A2B024AB802153F8042B019302A800F049
:102924006CFD802804460ADD802202A90020FFF7FE
:10293400D3FF204622B0BDE8104004B07047002801
:10294400F7DD0246F1E70000054B1B68082B01BFC9
:10295400044B1868B0FA80F0400918BF0020704793
:10296400300100103401001008B54FF080430022FC
:10297400C3F80C21C3F81021C3F838254FF0805256
:1029840003F54043D2F80414C3F82015D2F8081410
:10299400C3F82415D2F80C14C3F82815D2F810146F
:1029A400C3F82C15D2F81414C3F83015D2F818143F
:1029B400C3F83415D2F81C14C3F84015D2F8201407
:1029C400C3F84415D2F82414C3F84815D2F82814CF
:1029D400C3F84C15D2F82C14C3F85015D2F830149F
:1029E400C3F85415D2F83414C3F86015D2F8381467
:1029F400C3F86415D2F83C14C3F86815D2F840142F
:102A0400C3F86C15D2F84424C3F87025FFF79CFF73
:102A140010B1384B384A1A60FFF796FF18B1374B9C
:102A2400FB22C3F81825FFF78FFF48B13449354B13
:102A34000A681B6822F00F0203F00F0313430B60B4
:102A4400FFF782FF18B1304B4FF400721A604FF059
:102A54008043D3F80024D20744BF6FF00102C3F8C7
:102A640000242A4AD2F8883043F47003C2F888302C
:102A7400BFF34F8FBFF36F8F4FF01023D3F80022B3
:102A8400002A03DBD3F80432002B2FDA204B012277
:102A9400C3F80425D3F80024002AFBD04FF01022F9
:102AA4001221C2F80012D3F80024002AFBD04FF000
:102AB40010231222C3F80422154B1A46D3F800142B
:102AC4000029FBD00021C3F80415D2F80034002BF0
:102AD400FBD0BFF34F8F0D490E4BCA6802F4E0627E
:102AE4001343CB60BFF34F8F00BFFDE70A4B0B4A84
:102AF4001A6008BD8C5600404881030000F0004075
:102B0400E40E0040580200104096024000ED00E040
:102B140000E001400400FA051C0000200090D003EE
:102B240030B591EA030F00F18480841A71EB030C31
:102B340005D2121953EB0C03001B71EB0C0140F28C
:102B4400000CCFF6E07C1CEA430F54D0BCEB410FE1
:102B540061D90C0DA4EB135E31EA0C0141F4801130
:102B640033EA0C0343F48013DEF1200C2AD303FA76
:102B74000CF5401941F1000122FA0EF5401923FA2F
:102B84000EF5694112FA0CF2CD0208D349085FEA46
:102B940030005FEA320228BF42F001020134013CF6
:102BA4005FEA500C72F1004250F1000051EB045105
:102BB4004FF4001313EB410F38BF30BD090D090565
:102BC400002030BDBEF1200EBEF1200F1ED223FA2C
:102BD4000EF5401941F10001CEF1200C124218BF4C
:102BE400012203FA0CF52A43CEE711EA5C0F04BF75
:102BF4000020002130BD1CEA410F04BF01F0004158
:102C0400002030BD01F00041002030BD21F48011CE
:102C140001EB045130BD004218BF41F00101BCEB8F
:102C2400410F08BF30BD4FF0FE4141F47801002050
:102C340030BD83F00043841A71EB030E07D28EF08B
:102C4400004E001B71EB0E01121953EB0E0340F200
:102C5400000CCFF6E07C1CEA430FC6D0BCEB410F5E
:102C640072D90C0DA4EB135EC90241EA5051C002A3
:102C740041F00041DB0243EA5253D20243F00043E5
:102C8400DEF1200C41D312FA0CF522FA0EF203FA0B
:102C94000CF542EA050218BF42F0010223FA0EF3D2
:102CA400801A9941E30AC4F30A0411F0404F03D493
:102CB40018D0013C40004941013C23D44205C00ADC
:102CC40040EA4150C90A51EAC3715FEA500C72F1FB
:102CD400004250F1000051EB045130BD01002FD0EF
:102CE4000020203C0029F9D0B1FA81FCDCF1200E4F
:102CF40011FA0CF130FA0EF510FA0CF02943A4EB9A
:102D04000C04D9E70020D90730BDAEF1200EBEF186
:102D1400200F0DD2CEF1200C03FA0CF533FA0EF38A
:102D24002A4318BF43F00103C01A61F10001B9E757
:102D340021F00041C00A40EA4150C90A01EB0451A4
:102D440030BD0020002130BD004218BF41F0010118
:102D5400BCEB410F7FF467AFBCEB430F3FF463AFB1
:102D640030BD00BF83F00043FFF7DABEF0B540F298
:102D7400FF7681EA030C16EA115E1EBFB64516EA19
:102D84001355B5425AD021EA465141F48011A1FBB2
:102D9400024723EA465343F48013AE44A0FB036581
:102DA4000CF0004C36197D41A1FB034747F10003A9
:102DB400A0FB0217F619654153F10003094218BF3D
:102DC40046F0010640F2FE74B3F5007F13D2AEF56F
:102DD400806EA6452BD24CEA0331280341EA1551F3
:102DE40040EA16503203450872F1004250F10000E7
:102DF40051EB0E51F0BDAEF2FF3EA64517D24CEAA0
:102E0400C321E80241EA555140EA5650F20245080E
:102E140072F1004250F1000051EB0E51F0BD0CF084
:102E2400004141F0FE4141F470010020F0BD1EEA72
:102E34000E0FF4D50CF000410020F0BD16EA115F2E
:102E440004BF01F000410020004218BF41F001011D
:102E540016EA135F04BF03F000430022124218BFB6
:102E640043F0010306EA1354B44218BF9EEA060F66
:102E740003D00CF000410020F0BD21F0004123F00C
:102E84000043B1EB065F06D8B3EB065F03D8002915
:102E940018BF002BC3D140F20001C7F6F87100201F
:102EA400F0BD00BF2DE9F04391EA030E0EF0004E91
:102EB40040F20007CFF6E07717EA41051EBF95EA16
:102EC400070F17EA430595EA070F00F0A1807F0D6D
:102ED40017EA135623EA475343F4801317EA1155AC
:102EE40021EA475141F48011AD1B05F2FD354FEA4B
:102EF400D31C1CF1010C4FF00047B7FBFCF77F011A
:102F0400A2FB079C0024E3FB07C4DCF1000CD9F10D
:102F140000097CF1000CA0FB07620020E1FB072004
:102F240000275FEAC628E0FB0987760D46EAC22639
:102F3400520DF61900277A41E0FB0C625FEAC823C0
:102F4400E2FB09375FEA585848EAC628760D18EBC1
:102F5400070800214E41E2FB0C8602EBC020DA0296
:102F6400E6FB09215B0D43EAC8235FEA58585B1866
:102F7400002758EB0708E6FB0C38D102E8FB0917D9
:102F8400520D42EAC3225B0DD21900277B41E8FBB4
:102F94000C2308EBC6265FEAC128E3FB0987490D29
:102FA40041EAC221520DC91942F10002E3FB0C129D
:102FB400470019EB08095CEB010C72EB040453EBBA
:102FC400C62047EB56530026B3F5000F7641AD19E2
:102FD4000236D6F1200910FA09F4F04013FA09F286
:102FE4001043F340E40F001943F10003B3F5001F4D
:102FF40024BF5B08013540F2FE77BD4204D24EEA9D
:1030040005511944BDE8F0832D4224D5714626E0CC
:10301400004218BF41F00101124218BF43F00103FE
:10302400B7EB410F2CBFB7EB430F1BE0B7EB410FDE
:1030340004BFB7EB430F15E017EA410F04BF17EACB
:10304400430F0FE017EA410FE0D017EA430F02D015
:10305400B7EB430FDAD04EF0FE4141F4700100208B
:10306400BDE8F08340F20001C7F6F871F7E700BF4E
:1030740080B110F0004248BFD0F10000120D02F2FE
:103084001D42B0FA80F18840521AC30A400503EB8E
:103094000251704701007047C0F3C75191B142001B
:1030A4004FEA40704FEAD2014FEA310101F1605119
:1030B400B2F17F4F38BF704701F1605118BF41F43E
:1030C4000021704710F000410020704701F00042D9
:1030D4008B1AA3F16051B1F5801F0ADBB1F17F6F48
:1030E40009D242EAC102C10071F1004142EB5070C1
:1030F40070471046704701285B4113F5001F04D840
:1031040042F0FE4040F400007047C90041EA5070AC
:1031140040EA020040F4800040F08040704700BF65
:1031240010EE100A4FEA4000B0F17F4F0CBF0120AF
:103134000020704710EE100A41000020B1F17F4FCB
:1031440018BF50EB0000704710EE100A00F000406A
:10315400704700BFB0EEC00A704700BF00B510EE64
:10316400100A00F003F800EE100A00BD4FF07F4390
:10317400B3EB400F22D9410008BF704703EA400275
:10318400120E7F3A14DB172AA8BF70474FF6FF735D
:10319400C0F27F03D340184220EA030018BF10F0A6
:1031A400004F08BF70474FF40001D14040187047EA
:1031B40010F0004F0CBF00200248704718BF0248AF
:1031C40070470000000080BF0000C07F00B50146CA
:1031D40010EE100A00F003F800EE100A00BD4FF0E4
:1031E4007F43B3EB400F98BF704713EA400207D008
:1031F400120E7E3A0A6020EA530040F07C50704779
:103204000A6000F00040704700B5014610EE100A55
:1032140000F003F800EE100A00BD4FF07F43B3EB5B
:10322400400F98BF704713EA400204BF00F000400B
:10323400704711EB1262DCBF00F000407047FF2AB8
:103244003CBF00EBC150704740004FEA3300704769
:103254007F2805D8034B185C034B5B5C1840704710
:1032640000207047D846000058470000A0F16103D1
:10327400192B98BF20387047A0F14103192B98BF30
:10328400203070477F2805D8034B185C034B5B5CE8
:103294001840704700207047D84600005847000087
:1032A400A0F16103192B98BF20387047A0F14103A6
:1032B400192B98BF203070477F299ABF01700120D5
:1032C4006FF02E0070475AB10A787F2A0AD800B1ED
:1032D4000260002119605960501A18BF012070471C
:1032E400002070476FF02E0070470000002816DBA6
:1032F400002817DD0022B7EE000A0C4B10F0010F76
:103304001CBFD3ED007A20EE270A401004330028B6
:10331400F4DC4AB1F7EE007A87EE800A7047404247
:103324000122E8E7B7EE000A704700BF3049000009
:1033340038B504460846A26842B1236861685D1C3A
:103344008D4208BF00208B4208D2D054E3682BB1D1
:1033540021686268914201D221469847236801336B
:10336400236038BD70B54C1E09D41646C5B2294633
:103374003046FFF7DDFF013CB4F1FF3FF7D170BDEC
:1033840010F0100F08D108B510F4007F14BF3020DE
:103394002020FFF7E7FF08BD70470028B8BF404270
:1033A4007047000008B5034B5B689B681B6898472F
:1033B40008BD00BF2000002008B50921FFF7F2FF77
:1033C40008BD000000B5FDF703F8024B18445DF892
:1033D40004FB00BF08000000037853B159B1014455
:1033E400034613F8012F12B18B42FAD10B46181A77
:1033F40070470346FBE70346F9E710B584B00C4673
:10340400114602900022039201941A46684600F085
:103414007DF804B010BD844640EA010313F0030FA5
:1034240018D18446202A0BD32DE9F007B1E8F80718
:10343400A0E8F807A2F12002202AF7D2BDE8F0079D
:10344400042A07D351F8043B40F8043BA2F10402D8
:10345400042AF7D2002A05D011F8013B00F8013BF9
:10346400013AF9D160467047024610F0030F16D1B5
:1034740011F0030F13D12DE9F0004FF001374FF095
:10348400803351F8044BA4EB070525EA04051D40DD
:1034940002D142F8044BF4E7A1F10401F0BC11F8A5
:1034A400013B02F8013B002BF9D1704700F1010107
:1034B40010F0030F11D010F8012B002A23D010F0C4
:1034C400030F0AD010F8012B002A1CD010F0030FB0
:1034D40003D010F8012B002A15D02DE970004FF00D
:1034E40001324FF0803350F8044BA4EB020525EA77
:1034F40004051D4000D1F6E7A0F1040070BC10F8EB
:10350400012B002AFBD1A0EB010070472DE9F04FFD
:103514002DED048B89B083460392002303600D468E
:1035240015F8011B002900F0AE86DFEDA48A00F037
:103534009CBE002607E05E2866D146F4805601E072
:1035440046F0400615462A4612F8010B3028F2D8F8
:103554001F2838D9A0F12003102B34D801A151F829
:1035640023F000BF45350000CB350000CB3500000B
:10357400AD350000CB350000CB350000CB35000065
:10358400B3350000CB350000CB350000CB3500004F
:10359400B9350000CB350000BF350000CB35000045
:1035A400CB350000C535000046F08006CAE746F476
:1035B4000046C7E746F02006C4E746F01006C1E718
:1035C40046F40076BEE72A281ED1039B191D0391F9
:1035D4001F68002FBCBF7F4246F010061078AA1C5B
:1035E40027EAE7752E2824D00027742845D07A28A6
:1035F40043D06C2800F0C2804C2800F0C5806828B5
:1036040000F0D38091463BE0A0F13003DBB2092BFC
:1036140088BF0027E4D8002707EB8707303800EB82
:10362400470712F8010BA0F13003DBB2092BF3D9E1
:10363400D6E710782A280AD1039B191D03911F6825
:1036440050780232002FD0DB46F48076CDE7013289
:10365400A0F13003DBB2092B88BF0027F4D8002780
:1036640007EB8707303800EB470712F8010BA0F18E
:103674003003DBB2092BF3D9E4E7914619F8010BC7
:10368400782800F28480DFE810F0100682008200BF
:103694008200820082008200820082008200820016
:1036A4008200820082008200820082008200820006
:1036B40082008200820082008200820082008200F6
:1036C40082008200820082008200820082008200E6
:1036D40082008200A30082008200820082008200B5
:1036E40082008200820082008200820082008200C6
:1036F40082008200820082008200820082008200B6
:1037040082008200820082008200820082008200A5
:1037140082008200C401E101E6018200820082008D
:103724008200820082008200820082008200820085
:10373400820082008200820082001E0182008200D8
:103744008200820082008200820082008200820065
:10375400A9005301C601E301E8018200530182007C
:10376400820082008200B9004101040182008200CB
:10377400CE0082004C01820082002001914619F89B
:10378400010B46F001067BE746F0010691460C4B1F
:103794001C68002C00F0658503AB019300972B4651
:1037A40032465946A04700F05CBD1078682809D01D
:1037B40002F1010946F0040662E700BF0000C842B6
:1037C4005C09002046F0080602F10209507857E728
:1037D40025215846FFF7ACFD00F043BD039B1A1D9D
:1037E40003921C78013D5A4629463046FFF7C8FD2E
:1037F40021465846FFF79CFDB0463AE016F0080F04
:1038040008D0DBF80020039B191D03911B681A7074
:1038140000F027BD039B1A1D03921B68DBF80020F0
:103824001A6000F01EBD039B1A1D03921C688C4B8A
:10383400002C08BF1C4626F4007816F4807F23D0A1
:1038440039462046FFF7C8FD0646AD1B5A462946B1
:103854004046FFF795FD06F1FF3A56B1274634443A
:1038640017F8011B5846FFF763FDBC42F8D14FF02F
:10387400FF3A18F0100F00F0F4845A46294620202D
:10388400FFF770FD00F0EDBC2046FFF70FFE064683
:10389400DBE7039B1A1D03921B6816F0800F0CBF15
:1038A4000024232446F4807608271A46002B00F0CF
:1038B400B48404AB4FF0000806F40050DFF8A4C150
:1038C400A64600F06ABC46F4005616F0800F1BD0E2
:1038D40043F2780443F25803782818BF1C4616F4C0
:1038E400807F01D026F4007616F4804F32D0039BFB
:1038F4001A1D03921B6816F0040F1FD01BB2002B75
:1039040020DA5B422D242DE00024E8E716F0800F36
:103914000CBF0024302416F4807FE5D026F4007612
:10392400E2E716F4807F07D026F400760024DBE774
:1039340046F480460024D7E70024D5E716F0080FA4
:10394400DDD0DBB216F0200F61D116F0400F18BFA6
:10395400202407E0039B1A1D03921B6816F0040F32
:1039640050D09BB216F4807F00F0E68326F40076F4
:103974005838202800F23B8401A252F820F000BFFE
:10398400AF380000F3410000F3410000F3410000B0
:10399400F3410000F3410000F3410000F341000053
:1039A400F3410000F3410000F3410000F341000043
:1039B40069410000F3410000F3410000F3410000BD
:1039C400F341000069410000F3410000F3410000AD
:1039D400F3410000F3410000F341000041410000C5
:1039E400AF380000F3410000F3410000F341000050
:1039F400F341000069410000F3410000F34100007D
:103A0400AF38000016F0080FACD0DBB2AAE72B24C5
:103A1400A8E746F4005646F48066039B073323F078
:103A2400070303F108020392D3E90001FFF74EFBF9
:103A340008EE100A16F4807F16D0B7B906F4406772
:103A4400B7F5406F14BF002701270EE046F4005677
:103A540046F40066E1E746F4005646F44066DCE7C7
:103A6400484900001C4900000627B0EE480AFFF749
:103A740057FB002840F0BB80B0EE480AFFF75AFB22
:103A84008046002840F0CC80B0EE480AFFF75CFB8B
:103A9400002840F0CE8018EE103A08EE103A07A83D
:103AA40000EE103AFFF792FB079B03EB4303CA4A6D
:103AB40082FB0312DB17C3EBA2030793B5EE408A24
:103AC400F1EE10FA40F0BF8006F44064B4F5806F64
:103AD4000AD0B4F5406F40F06E81079BBB4203DA15
:103AE40013F1040F80F2678107984042FFF7FEFB51
:103AF40028EE008A8DED028AB5EE408AF1EE10FAC6
:103B040036D0B0EE480AFFF70BFB002840F0B18036
:103B1400F2EE047AB4EEE78AF1EE10FA0FDB079BBB
:103B24000133F2EE047A1A4688EE278A0133B4EEA2
:103B3400E78AF1EE10FAF6DA8DED028A0792DDEDEE
:103B4400027AB7EE007AF4EEC77AF1EE10FA0FD5E6
:103B5400079B013BF2EE046A1A4667EEA67A013B24
:103B6400F4EEC77AF1EE10FAF6D4CDED027A0792AC
:103B740027B1B4F5406F08BF07F1FF377842FFF76C
:103B8400B5FBF6EE007A60EE277A9DED027A77EEC9
:103B9400877AB2EE047AF4EEC77AF1EE10FA80F284
:103BA4008180B0EE678A002F00F0918006F40863EC
:103BB400B3F5006F7ED026F4006302937B1DED1AEB
:103BC400013D16F4805F00F0F380079A834B83FB7A
:103BD4000213A3EBE27303EB4303D31A0233042B64
:103BE40000F2E480DFE803F099DA9699DA00B5EEA2
:103BF400C08AF1EE10FA0CD416F4005F784C794BBD
:103C040008BF1C4616F0200F08BF013426F4807646
:103C140011E616F4005F744C744B08BF1C46F5E7BC
:103C240016F4005F724C734B08BF1C4626F4807672
:103C340001E646F06006F1EE487A17EE903A2CE77A
:103C4400079B0133079307980130FFF74FFBB4EE4E
:103C5400C08AF1EE10FAF3DC02E0079B013B079304
:103C64000798FFF743FBB4EEC08AF1EE10FAF4D4E0
:103C74002AE7B5EEC08AF1EE10FA0CD416F4005F10
:103C8400574C584B08BF1C4616F0200F08BF013490
:103C940026F48076CFE516F4005F534C534B08BFEF
:103CA4001C46F5E7079B01330793B2EE047A87EECF
:103CB400878A78E7092FA8BF09273846FFF716FB3C
:103CC40060EE087AFCEEE77A17EE903A4BB926F4E8
:103CD40000630293053D16F080073FF472AF474638
:103CE4006EE7454AA2FB0312D20802EB8202B3EB51
:103CF400420F7FF460AF4049A1FB0323DB08013F7F
:103D0400E5D0A1FB0302D20802EB8202B3EB420F1F
:103D1400F2D050E74FF0010808E0F2EE047A27EE03
:103D2400888A013A0792013D4FF0020827EAE777B3
:103D340016F0600F18BF05F1FF350798FFF72DFB4C
:103D44006328C8BF05F1FF35F0EE487ABCEEC87AA7
:103D540017EE104AB8EE478A37EEC88A25EAE57AA4
:103D6400029B13F4047F00F0D580029B13F0200F14
:103D740000F0DE8013F0400F14BF2D212B21584694
:103D8400FFF7D6FA029B13F0100F00F0DB801B4EF6
:103D940008F10055013D06EBC505EAE028EE888AE6
:103DA400023A0792023D4FF00308BFE7D046BDE751
:103DB4004FF00108BCE716F4806F3ED0079B0E2B32
:103DC4003ADC0133FC1A092CA8BF092416F0800F31
:103DD40016D0274631E000BF6766666656555555CE
:103DE400604900006849000050490000584900003B
:103DF4007049000074490000CDCCCCCC7849000057
:103E0400BB426BD0F6EE009AB2EE049A2046FFF75E
:103E14006DFA28EE000A30EE290AFFF79FF9F0EE5A
:103E2400490A00F085FAB5EE400AF1EE10FA57D1CE
:103E3400013CEBD1274600E0474626F48063029319
:103E4400079B7842A3F108028242C8BFA3F109008C
:103E5400FFF74CFA4FF0FF30FFF7D6F938EE008A3F
:103E6400B0EE489A07980130FFF740FAB4EEC08AE2
:103E7400F1EE10FA02DB079B013307930798002841
:103E840040DB09282EDCFCEEC97A17EE904AB8EE26
:103E9400678A39EE488A0023079320460021092CBB
:103EA40035D9DFF82CC44FF0010808F10108FCE90A
:103EB4000223994208BF9042F7D207EB0803079AFE
:103EC4001344ED1A06F080033B4318BF05F1FF3598
:103ED40016F0600F18BF05F1FF353FE72746ACE742
:103EE4002746AAE7A0F109030793C0F10900FFF7E9
:103EF400FDF929EE009AFCEEC97A17EE904A08EE15
:103F0400108ACAE7002407944FF00108D5E74FF060
:103F14000108D2E7002D7FF728AF20255646013E41
:103F240029465846FFF704FA002EF8D1B2461CE79A
:103F3400029B13F0400F3FF425AF20215846FFF7B2
:103F4400F7F91FE7BAF1000F3FF421AF30255646C9
:103F5400013E29465846FFF7EBF9002EF8D1B24648
:103F640015E74FF0300C61465846FFF7E1F9B045CC
:103F740015D0D5E90023A846083D0021994208BF81
:103F84009442EED34FF0300C0CF1010C5FFA8CFC30
:103F9400A41A0021994208BF9442F5D2E3E7029B98
:103FA40013F4006449D1002F55D1029B13F0800F04
:103FB40040F07E81029B13F4806F2FD013F4005FD6
:103FC40014BF452165215846FFF7B2F9079B002B22
:103FD400C0F294802B215846FFF7AAF90799632968
:103FE40000F394800799B64C84FB0132C917C1EBE6
:103FF400A2013031C9B25846FFF79AF9079B84FBF6
:104004000324D917C1EBA40101EB8101A3EB410304
:1040140003F13001C9B25846FFF78AF9BAF1000F2B
:1040240000F01F8120245546013D21465846FFF7E4
:104034007FF9002DF8D1AA4613E1079B002BB2DDCE
:104044003025013B079329465846FFF771F9079B32
:10405400002BF6DCA7E72E215846FFF769F93D4609
:10406400092FA8BF092525EAE5757F1B8CB10798A0
:10407400281AFFF73BF920EE088AFCEEC87A17EEFF
:10408400904A7DB305F10055013D8E4B03EBC50508
:1040940019E02846FFF72AF920EE088AFCEEC87AD0
:1040A40017EE904AEDE70CF1010C5FFA8CFCA41AB0
:1040B4000021994208BF9442F5D261465846FFF761
:1040C40037F946450ED0D5E90023A846083D00211E
:1040D400994208BF944202D34FF0300CE3E74FF00B
:1040E400300CEAE7002F3FF465AF3024013F21464E
:1040F4005846FFF71DF9002FF8D15BE72D215846EC
:10410400FFF716F9079B5B42079367E76E4C84FB46
:104114000132C917C1EB62113031C9B25846FFF7F9
:1041240007F9079A84FB0231D317C3EB61136421A7
:1041340001FB1323079355E7012719E41A464FF0AF
:104144000008002B55D004A94FF0000803F0070322
:10415400303301F8013B08F10108D2081346002A64
:10416400F4D146E019464FF00008002B41D04FF03F
:10417400000806F4004E4FF02C0ADFF858C17346CD
:10418400A6461C4624E002F00F01504C615C03F883
:10419400011B08F10108120906D00028F3D002F02F
:1041A4000F011CF80110F2E7744622E008AB03EBA0
:1041B4000800ACFB0132D20802EB8203A1EB4303FB
:1041C400303300F8103C08F1010809290DD91146D3
:1041D400002CEBD008F00303032BE7D108AB4344D6
:1041E40003F810AC08F10108E0E7744601E04FF071
:1041F4000008A7EB080727EAE777ED1BA5EB0805FE
:10420400FF2C0DD9023DC4F307215846FFF790F85F
:10421400E1B25846FFF78CF804E04FF00008E8E7F5
:10422400002C4BD15A4629463046FFF7A9F85A4686
:1042340039463020FFF796F8B8F1010A0ED404ABE2
:1042440054461C449846217827465846FFF770F890
:10425400444504F1FF34F6D14FF0FF3A16F0100F45
:104264000BD14D4615F8011B69B125293FF461A90D
:104274005846FFF75DF8A946F3E75A462946202039
:10428400FFF770F8EDE7DBF808303BB1DBF800200E
:10429400DBF804108A423CBF00219954DBF800008B
:1042A40009B0BDEC048BBDE8F08F4FF0FF30F7E7A9
:1042B4002E215846FFF73CF83D46D6E6013DA7E7D8
:1042C40067666666784900001F85EB510C4900005B
:1042D40080490000CDCCCCCCDFED137AB4EE670A74
:1042E400F1EE10FA12D010EE102AC2F3C7537F3B3E
:1042F40011D4162B12DC0D4921FA03F322EA03022E
:1043040007EE902A026030EE670A7047C0ED007A2B
:10431400B0EE670A7047C0ED007A704780ED000A7E
:10432400B0EE670A704700BF00000000FFFF7F0087
:1043340000B52DED028BF5EE400AF1EE10FA83B0D4
:104344004BD0B0EE608AF0EE408AFEF7F3FE30B157
:10435400B0EE680A03B0BDEC028B5DF804FBB0EE6E
:10436400480AFEF7E7FE002843D1F5EE408AF1EE55
:1043740010FAEDD0B0EE680AFEF7D2FE00283FD165
:10438400B0EE480AFEF7CCFE0028E1D1B0EE480AB0
:10439400FEF7E0FEB0EE408A88EE880A01A8FFF737
:1043A4009BFFDDED017AF5EEC08AB0EE680AF1EE0E
:1043B40010FAA8EE670AB1EE487A24DDB4EEC08A9A
:1043C400F1EE10FA98BF30EE480AB5EEC00AF1EEED
:1043D40010FABFD530EE080ABCE7FEF7F3FF114B25
:1043E4009FED110A1B68036003B0BDEC028B5DF8FE
:1043F40004FBB0EE480A03B0BDEC028B5DF804FB8D
:104404009FED090AA6E7B4EEC70AF1EE10FA98BFC9
:1044140030EE080AB5EEC00AF1EE10FA9ADD30EE7D
:0C442400480A97E72C4900000000C07F08
:10443000F845000000000000FC45000000000000FE
:1044400000460000000000000646000000000000DA
:104450000C460000000000001146000000000000B3
:10446000E244000000000303E145000000000000FA
:10447000B444000000000000C0440000140000200C
:10448000780000204001002048010020800000202A
:044490001800000010
:10449400FFFFFFFFFFFFFFFFFFFFFFFFFFFFFFFF28
:1044A40000000000000000000000D601060100002A
:1044B4000D05000071050000AD0400007561727403
:1044C4005F6C6F675F6261636B656E64004261631A
:1044D4006B656E647320666C7573686564006170E7
:1044E400700000006C0500207F000000EC05002037
:1044F4001B5B306D002573001B5B313B33316D005A
:1045040025734C6F67732064726F70706564202824
:1045140025642925730D0A003C25733E2025733A32
:104524002000202530327800202020007C002563E4
:10453400001B5B313B33306D001B5B313B33326D11
:10454400001B5B313B33336D001B5B313B33346DFC
:10455400001B5B313B33356D001B5B313B33366DE8
:10456400001B5B313B33376D007761726E696E6798
:1045740000696E666F00646562756700F44400004C
:1045840035450000FC4400003D4500004545000061
:104594004D450000554500005D450000654500009F
:1045A40000000000BE4500006D4500007545000098
:1045B4007A450000466174616C206572726F720006
:1045C40053797374656D207265736574003031328C
:1045D400333435363738394142434445467077726F
:1045E4005F6D676D740000003044000030440000CB
:1045F40004000000505049005052530053414144BC
:10460400430054494D4552005541525400554152BE
:1046140054450073616164632074656D70202020CB
:10462400203A2025640A0073616164632068756D13
:1046340069202020203A2025640A0074656D7020CA
:10464400203A2025660A0068756D6920203A2025E5
:10465400660A007761726E696E67203A20746F6F24
:1046640020686967682068756D69646974792121B7
:10467400210A0053414144432048414C2073696D51
:10468400706C65206578616D706C652073746172FF
:104694007465642E000000000002000002000000A7
:1046A400000002000003000100060000008000403A
:1046B400000400005465726D696E616C00525454BC
:1046C400005345474745520043000000504F5349AB
:1046D40058000000202020202020202020682828A6
:1046E40028282020202020202020202020202020B6
:1046F400202020204810101010101010101010103E
:10470400101010108484848484848484848410101D
:10471400101010101081818181818101010101013A
:104724000101010101010101010101010101011066
:10473400101010101082828282828202020202020F
:104744000202020202020202020202020202021037
:10475400101010200007032004170201085710400E
:1047640080000000CC460000D0470000E448000070
:1047740053756E004D6F6E00547565005765640087
:1047840054687500467269005361740000000000AB
:104794004A616E00466562004D61720041707200AC
:1047A4004D6179004A756E004A756C004175670069
:1047B400536570004F6374004E6F76004465630068
:1047C40000000000414D00504D0000000849000069
:1047D40004490000044900000449000004490000A1
:1047E4000449000004490000044900000449000091
:1047F40004490000FFFFFFFFFFFFFFFFFFFFFFFF74
:10480400FFFF000044480000744700008048000097
:1048140094470000C847000028480000D84800001A
:1048240034480000256D2F25642F257900000000F1
:104834002561202562202565202554202559000066
:1048440053756E646179004D6F6E646179005475BF
:104854006573646179005765646E6573646179009A
:104864005468757273646179004672696461790091
:104874005361747572646179000000004A616E7559
:10488400617279004665627275617279004D617278
:10489400636800417072696C004D6179004A756EFD
:1048A40065004A756C7900417567757374005365CA
:1048B4007074656D626572004F63746F6265720037
:1048C4004E6F76656D62657200446563656D626501
:1048D4007200000025483A254D3A25530000000097
:1048E40055320000713200007D3200008932000030
:1048F400A5320000B1320000BD320000CB3200000E
:10490400000000002E0000003031323334353637D9
:104914003839616263646566303132333435363731
:1049240038394142434445462100000000002041FB
:104934000000C84200401C4620BCBE4CCA1B0E5A94
:10494400AEC59D74286E756C6C2900002D494E46C9
:10495400000000002D696E66000000002B494E46E1
:10496400000000002B696E66000000004E414E00FE
:104974006E616E0001000000000000000A000000EB
:10498400000000006400000000000000E8030000D4
:10499400000000001027000000000000A0860100B5
:1049A4000000000040420F000000000080969800C4
:1049B4000000000000E1F5050000000000CA9A3B79
:1049C4000000000000E40B540200000000E87648F8
:1049D400170000000010A5D4E800000000A0724EEB
:1049E4001809000000407A10F35A00000080C6A4A1
:1049F4007E8D03000000C16FF286230000008A5DF3
:104A040078456301000064A7B3B6E00D0000E889AF
:044A14000423C78A26
:104A180000000000002000400000000000200040CE
:104A28000000000000000000FF0000000090D0031C
:104A380068470000684700006847000068470000B2
:044A480068470000BB
:040000030000037581
:00000001FF
